{"abi":[{"type":"constructor","inputs":[],"stateMutability":"nonpayable"},{"type":"function","name":"getAllGms","inputs":[],"outputs":[{"name":"","type":"tuple[]","internalType":"struct GmPortal.Gm[]","components":[{"name":"gmer","type":"address","internalType":"address"},{"name":"message","type":"string","internalType":"string"},{"name":"timestamp","type":"uint256","internalType":"uint256"}]}],"stateMutability":"view"},{"type":"function","name":"getTotalGms","inputs":[],"outputs":[{"name":"","type":"uint256","internalType":"uint256"}],"stateMutability":"view"},{"type":"function","name":"gm","inputs":[{"name":"_message","type":"string","internalType":"string"}],"outputs":[],"stateMutability":"nonpayable"},{"type":"function","name":"usersWhoGmd","inputs":[{"name":"","type":"address","internalType":"address"}],"outputs":[{"name":"","type":"bool","internalType":"bool"}],"stateMutability":"view"},{"type":"event","name":"NewGm","inputs":[{"name":"from","type":"address","indexed":true,"internalType":"address"},{"name":"timestamp","type":"uint256","indexed":false,"internalType":"uint256"},{"name":"message","type":"string","indexed":false,"internalType":"string"}],"anonymous":false}],"bytecode":{"object":"0x608060405234801561001057600080fd5b506100326040518060600160405280603b815260200161092a603b9139610037565b6100f0565b61007e8160405160240161004b91906100a2565b60408051601f198184030181529190526020810180516001600160e01b0390811663104c13eb60e21b1790915261008116565b50565b80516a636f6e736f6c652e6c6f67602083016000808483855afa5050505050565b602081526000825180602084015260005b818110156100d057602081860181015160408684010152016100b3565b506000604082850101526040601f19601f83011684010191505092915050565b61082b806100ff6000396000f3fe608060405234801561001057600080fd5b506004361061004c5760003560e01c80633a05e29e146100515780638a215be31461006f578063d8686ecb14610085578063e2d499c11461009a575b600080fd5b6100596100cd565b6040516100669190610475565b60405180910390f35b6100776101de565b604051908152602001610066565b61009861009336600461051d565b610220565b005b6100bd6100a83660046105d6565b60026020526000908152604090205460ff1681565b6040519015158152602001610066565b60606001805480602002602001604051908101604052809291908181526020016000905b828210156101d557600084815260209081902060408051606081019091526003850290910180546001600160a01b03168252600181018054929391929184019161013a90610606565b80601f016020809104026020016040519081016040528092919081815260200182805461016690610606565b80156101b35780601f10610188576101008083540402835291602001916101b3565b820191906000526020600020905b81548152906001019060200180831161019657829003601f168201915b50505050508152602001600282015481525050815260200190600101906100f1565b50505050905090565b6000610219604051806040016040528060158152602001745765206861766520256420746f74616c20676d732160581b815250600054610379565b5060005490565b60016000808282546102329190610640565b9091555050604080518082019091526015815274257320676d276420772f206d65737361676520257360581b602082015261026e9033836103c2565b6040805160608101825233815260208101838152429282019290925260018054808201825560009190915281517fb10e2d527612073b26eecdfd717e6a320cf44b4afac2b0732d9fcbe2b7fa0cf6600390920291820180546001600160a01b0319166001600160a01b0390921691909117815592519192917fb10e2d527612073b26eecdfd717e6a320cf44b4afac2b0732d9fcbe2b7fa0cf79091019061031590826106b5565b506040918201516002909101555133907fee86ba231d4398fdc6bddfeaf10d67c92be43790841bf9ae08cc7c476f01294e906103549042908590610774565b60405180910390a250336000908152600260205260409020805460ff19166001179055565b6103be828260405160240161038f929190610795565b60408051601f198184030181529190526020810180516001600160e01b03166309710a9d60e41b17905261040e565b5050565b6104098383836040516024016103da939291906107b7565b60408051601f198184030181529190526020810180516001600160e01b031663e0e9ad4f60e01b17905261040e565b505050565b80516a636f6e736f6c652e6c6f67602083016000808483855afa5050505050565b6000815180845260005b8181101561045557602081850181015186830182015201610439565b506000602082860101526020601f19601f83011685010191505092915050565b6000602082016020835280845180835260408501915060408160051b86010192506020860160005b828110156104fb57868503603f19018452815180516001600160a01b031686526020808201516060918801829052906104d89088018261042f565b60409283015197909201969096529450602093840193919091019060010161049d565b50929695505050505050565b634e487b7160e01b600052604160045260246000fd5b60006020828403121561052f57600080fd5b813567ffffffffffffffff81111561054657600080fd5b8201601f8101841361055757600080fd5b803567ffffffffffffffff81111561057157610571610507565b604051601f8201601f19908116603f0116810167ffffffffffffffff811182821017156105a0576105a0610507565b6040528181528282016020018610156105b857600080fd5b81602084016020830137600091810160200191909152949350505050565b6000602082840312156105e857600080fd5b81356001600160a01b03811681146105ff57600080fd5b9392505050565b600181811c9082168061061a57607f821691505b60208210810361063a57634e487b7160e01b600052602260045260246000fd5b50919050565b8082018082111561066157634e487b7160e01b600052601160045260246000fd5b92915050565b601f82111561040957806000526020600020601f840160051c8101602085101561068e5750805b601f840160051c820191505b818110156106ae576000815560010161069a565b5050505050565b815167ffffffffffffffff8111156106cf576106cf610507565b6106e3816106dd8454610606565b84610667565b6020601f82116001811461071757600083156106ff5750848201515b600019600385901b1c1916600184901b1784556106ae565b600084815260208120601f198516915b828110156107475787850151825560209485019460019092019101610727565b50848210156107655786840151600019600387901b60f8161c191681555b50505050600190811b01905550565b82815260406020820152600061078d604083018461042f565b949350505050565b6040815260006107a8604083018561042f565b90508260208301529392505050565b6060815260006107ca606083018661042f565b6001600160a01b038516602084015282810360408401526107eb818561042f565b969550505050505056fea2646970667358221220d8486f021e0b853e89e868de25781049e140d7ddf29dcd0bfe433ec27470e97c64736f6c634300081a00336920616d206120736d61727420636f6e7472616374206f6e20506f6c617269732045564d207820526f6c6c6b69742e206f6f676120626f6f676121","linkReferences":{}},"methodIdentifiers":{"getAllGms()":"3a05e29e","getTotalGms()":"8a215be3","gm(string)":"d8686ecb","usersWhoGmd(address)":"e2d499c1"},"id":12}