{"abi":[{"type":"constructor","inputs":[{"name":"_betToken","type":"address","internalType":"address"},{"name":"_electionName","type":"string","internalType":"string"},{"name":"_initialDemocratOdds","type":"uint256","internalType":"uint256"}],"stateMutability":"nonpayable"},{"type":"function","name":"ELECTION_END_TIME","inputs":[],"outputs":[{"name":"","type":"uint256","internalType":"uint256"}],"stateMutability":"view"},{"type":"function","name":"betToken","inputs":[],"outputs":[{"name":"","type":"address","internalType":"contract IERC20"}],"stateMutability":"view"},{"type":"function","name":"claimWinnings","inputs":[],"outputs":[],"stateMutability":"nonpayable"},{"type":"function","name":"electionMarket","inputs":[],"outputs":[{"name":"electionName","type":"string","internalType":"string"},{"name":"totalPoolSize","type":"uint256","internalType":"uint256"},{"name":"isResolved","type":"bool","internalType":"bool"},{"name":"winner","type":"uint8","internalType":"uint8"},{"name":"democratOdds","type":"uint256","internalType":"uint256"},{"name":"republicanOdds","type":"uint256","internalType":"uint256"},{"name":"lastOddsUpdate","type":"uint256","internalType":"uint256"}],"stateMutability":"view"},{"type":"function","name":"getMarketInfo","inputs":[],"outputs":[{"name":"electionName","type":"string","internalType":"string"},{"name":"endTime","type":"uint256","internalType":"uint256"},{"name":"totalPoolSize","type":"uint256","internalType":"uint256"},{"name":"isResolved","type":"bool","internalType":"bool"},{"name":"democratPool","type":"uint256","internalType":"uint256"},{"name":"republicanPool","type":"uint256","internalType":"uint256"},{"name":"democratOdds","type":"uint256","internalType":"uint256"},{"name":"republicanOdds","type":"uint256","internalType":"uint256"},{"name":"lastOddsUpdate","type":"uint256","internalType":"uint256"}],"stateMutability":"view"},{"type":"function","name":"getUserBets","inputs":[{"name":"_user","type":"address","internalType":"address"}],"outputs":[{"name":"parties","type":"uint8[]","internalType":"uint8[]"},{"name":"amounts","type":"uint256[]","internalType":"uint256[]"},{"name":"claimed","type":"bool[]","internalType":"bool[]"}],"stateMutability":"view"},{"type":"function","name":"owner","inputs":[],"outputs":[{"name":"","type":"address","internalType":"address"}],"stateMutability":"view"},{"type":"function","name":"placeBet","inputs":[{"name":"_party","type":"uint8","internalType":"uint8"},{"name":"_amount","type":"uint256","internalType":"uint256"}],"outputs":[],"stateMutability":"nonpayable"},{"type":"function","name":"renounceOwnership","inputs":[],"outputs":[],"stateMutability":"nonpayable"},{"type":"function","name":"resolveMarket","inputs":[{"name":"_winner","type":"uint8","internalType":"uint8"}],"outputs":[],"stateMutability":"nonpayable"},{"type":"function","name":"transferOwnership","inputs":[{"name":"newOwner","type":"address","internalType":"address"}],"outputs":[],"stateMutability":"nonpayable"},{"type":"function","name":"updateOdds","inputs":[{"name":"_democratOdds","type":"uint256","internalType":"uint256"}],"outputs":[],"stateMutability":"nonpayable"},{"type":"function","name":"userBets","inputs":[{"name":"","type":"address","internalType":"address"},{"name":"","type":"uint256","internalType":"uint256"}],"outputs":[{"name":"party","type":"uint8","internalType":"uint8"},{"name":"amount","type":"uint256","internalType":"uint256"},{"name":"claimed","type":"bool","internalType":"bool"}],"stateMutability":"view"},{"type":"event","name":"BetPlaced","inputs":[{"name":"bettor","type":"address","indexed":true,"internalType":"address"},{"name":"party","type":"uint8","indexed":false,"internalType":"uint8"},{"name":"amount","type":"uint256","indexed":false,"internalType":"uint256"}],"anonymous":false},{"type":"event","name":"MarketResolved","inputs":[{"name":"winner","type":"uint8","indexed":false,"internalType":"uint8"}],"anonymous":false},{"type":"event","name":"OddsUpdated","inputs":[{"name":"democratOdds","type":"uint256","indexed":false,"internalType":"uint256"},{"name":"republicanOdds","type":"uint256","indexed":false,"internalType":"uint256"}],"anonymous":false},{"type":"event","name":"OwnershipTransferred","inputs":[{"name":"previousOwner","type":"address","indexed":true,"internalType":"address"},{"name":"newOwner","type":"address","indexed":true,"internalType":"address"}],"anonymous":false},{"type":"event","name":"WinningsClaimed","inputs":[{"name":"bettor","type":"address","indexed":true,"internalType":"address"},{"name":"amount","type":"uint256","indexed":false,"internalType":"uint256"}],"anonymous":false},{"type":"error","name":"OwnableInvalidOwner","inputs":[{"name":"owner","type":"address","internalType":"address"}]},{"type":"error","name":"OwnableUnauthorizedAccount","inputs":[{"name":"account","type":"address","internalType":"address"}]},{"type":"error","name":"ReentrancyGuardReentrantCall","inputs":[]}],"bytecode":{"object":"0x60a060405234801561001057600080fd5b506040516117b63803806117b683398101604081905261002f916101f5565b6001600055338061005b57604051631e4fbdf760e01b8152600060048201526024015b60405180910390fd5b6100648161018d565b506001600160a01b0383166100bb5760405162461bcd60e51b815260206004820152601560248201527f496e76616c696420746f6b656e206164647265737300000000000000000000006044820152606401610052565b61271081111561010d5760405162461bcd60e51b815260206004820152601560248201527f4f646473206d757374206265203c3d20313030303000000000000000000000006044820152606401610052565b6001600160a01b03831660805260026101268382610376565b50600681905561013881612710610434565b600755426008557f401f5799446884f85b1967999c05db7393e8ce1fd302dc57ad43d6c1fafe9e298161016d81612710610434565b6040805192835260208301919091520160405180910390a150505061045b565b600180546001600160a01b038381166001600160a01b0319831681179093556040519116919082907f8be0079c531659141344cd1fd0a4f28419497f9722a3daafe3b4186f6b6457e090600090a35050565b634e487b7160e01b600052604160045260246000fd5b60008060006060848603121561020a57600080fd5b83516001600160a01b038116811461022157600080fd5b60208501519093506001600160401b0381111561023d57600080fd5b8401601f8101861361024e57600080fd5b80516001600160401b03811115610267576102676101df565b604051601f8201601f19908116603f011681016001600160401b0381118282101715610295576102956101df565b6040528181528282016020018810156102ad57600080fd5b60005b828110156102cc576020818501810151838301820152016102b0565b50600091810160200191909152604095909501519396949550929392505050565b600181811c9082168061030157607f821691505b60208210810361032157634e487b7160e01b600052602260045260246000fd5b50919050565b601f82111561037157806000526020600020601f840160051c8101602085101561034e5750805b601f840160051c820191505b8181101561036e576000815560010161035a565b50505b505050565b81516001600160401b0381111561038f5761038f6101df565b6103a38161039d84546102ed565b84610327565b6020601f8211600181146103d757600083156103bf5750848201515b600019600385901b1c1916600184901b17845561036e565b600084815260208120601f198516915b8281101561040757878501518255602094850194600190920191016103e7565b50848210156104255786840151600019600387901b60f8161c191681555b50505050600190811b01905550565b8181038181111561045557634e487b7160e01b600052601160045260246000fd5b92915050565b6080516113326104846000396000818161015b0152818161089b0152610ac901526113326000f3fe608060405234801561001057600080fd5b50600436106100cf5760003560e01c80638068aa681161008c578063dcb3b30e11610066578063dcb3b30e146101e2578063eb50f6bc146101f5578063f21ffa6b14610208578063f2fde38b1461021b57600080fd5b80638068aa68146101955780638da5cb5b146101c9578063b401faf1146101da57600080fd5b806303b7338e146100d457806323341a05146100f25780632d56657d1461010f5780635536f26214610131578063715018a61461014c57806378691f1614610156575b600080fd5b6100df636729600081565b6040519081526020015b60405180910390f35b6100fa61022e565b6040516100e999989796959493929190610f88565b61012261011d366004610ff8565b610360565b6040516100e993929190611058565b610139610557565b6040516100e997969594939291906110f0565b610154610617565b005b61017d7f000000000000000000000000000000000000000000000000000000000000000081565b6040516001600160a01b0390911681526020016100e9565b6101a86101a3366004611137565b61062b565b6040805160ff909416845260208401929092521515908201526060016100e9565b6001546001600160a01b031661017d565b610154610672565b6101546101f0366004611172565b610997565b61015461020336600461118e565b610c7a565b6101546102163660046111a7565b610d95565b610154610229366004610ff8565b610e5b565b60035460045460056020527f05b8ccbb9d4d8fb16ea74ce3c29a41f1b461fbdaff4714a0d9a8eb05499746bc54600160009081527f1471eb6eb2c5e789fc3de43f8ce62938c7d1836ec861730447e2ada8fd81017b54600654600754600854600280546060999698899889988998899889988998899897636729600097959660ff90961695949392919089906102c3906111c2565b80601f01602080910402602001604051908101604052809291908181526020018280546102ef906111c2565b801561033c5780601f106103115761010080835404028352916020019161033c565b820191906000526020600020905b81548152906001019060200180831161031f57829003601f168201915b50505050509850985098509850985098509850985098509850909192939495969798565b6001600160a01b03811660009081526009602052604090208054606091829182919067ffffffffffffffff81111561039a5761039a6111fc565b6040519080825280602002602001820160405280156103c3578160200160208202803683370190505b50815490945067ffffffffffffffff8111156103e1576103e16111fc565b60405190808252806020026020018201604052801561040a578160200160208202803683370190505b50815490935067ffffffffffffffff811115610428576104286111fc565b604051908082528060200260200182016040528015610451578160200160208202803683370190505b50915060005b815481101561054e5781818154811061047257610472611212565b6000918252602090912060039091020154855160ff9091169086908390811061049d5761049d611212565b602002602001019060ff16908160ff16815250508181815481106104c3576104c3611212565b9060005260206000209060030201600101548482815181106104e7576104e7611212565b60200260200101818152505081818154811061050557610505611212565b906000526020600020906003020160020160009054906101000a900460ff1683828151811061053657610536611212565b91151560209283029190910190910152600101610457565b50509193909250565b600280548190610566906111c2565b80601f0160208091040260200160405190810160405280929190818152602001828054610592906111c2565b80156105df5780601f106105b4576101008083540402835291602001916105df565b820191906000526020600020905b8154815290600101906020018083116105c257829003601f168201915b50505060018401546002850154600486015460058701546006909701549596929560ff80841696506101009093049092169350919087565b61061f610e99565b6106296000610ec6565b565b6009602052816000526040600020818154811061064757600080fd5b600091825260209091206003909102018054600182015460029092015460ff91821694509192501683565b61067a610f18565b60045460ff166106c75760405162461bcd60e51b815260206004820152601360248201527213585c9ad95d081b9bdd081c995cdbdb1d9959606a1b60448201526064015b60405180910390fd5b336000908152600960209081526040808320600454610100900460ff168452600590925282205460035483906106fe90839061123e565b905060005b83548110156108375783818154811061071e5761071e611212565b600091825260209091206002600390920201015460ff161580156107745750600454845461010090910460ff169085908390811061075e5761075e611212565b600091825260209091206003909102015460ff16145b1561082f576000838386848154811061078f5761078f611212565b9060005260206000209060030201600101546107ab9190611257565b6107b5919061126e565b90506000818684815481106107cc576107cc611212565b9060005260206000209060030201600101546107e89190611290565b90506107f48188611290565b9650600186848154811061080a5761080a611212565b60009182526020909120600390910201600201805460ff191691151591909117905550505b600101610703565b506000841161087f5760405162461bcd60e51b81526020600482015260146024820152734e6f2077696e6e696e677320746f20636c61696d60601b60448201526064016106be565b60405163a9059cbb60e01b8152336004820152602481018590527f00000000000000000000000000000000000000000000000000000000000000006001600160a01b03169063a9059cbb906044016020604051808303816000875af11580156108ec573d6000803e3d6000fd5b505050506040513d601f19601f8201168201806040525081019061091091906112a3565b6109545760405162461bcd60e51b8152602060048201526015602482015274151bdad95b881d1c985b9cd9995c8819985a5b1959605a1b60448201526064016106be565b60405184815233907f1a31e733a172afcf46074b3106c17f0c298e226442682a03c1e99ce256139ec29060200160405180910390a2505050506106296001600055565b61099f610f18565b600081116109ef5760405162461bcd60e51b815260206004820152601b60248201527f42657420616d6f756e74206d75737420626520706f736974697665000000000060448201526064016106be565b60018260ff161115610a3a5760405162461bcd60e51b8152602060048201526014602482015273496e76616c69642070617274792063686f69636560601b60448201526064016106be565b63672960004210610a845760405162461bcd60e51b815260206004820152601460248201527310995d1d1a5b99c81c195c9a5bd908195b99195960621b60448201526064016106be565b60045460ff1615610aa75760405162461bcd60e51b81526004016106be906112c5565b6040516323b872dd60e01b8152336004820152306024820152604481018290527f00000000000000000000000000000000000000000000000000000000000000006001600160a01b0316906323b872dd906064016020604051808303816000875af1158015610b1a573d6000803e3d6000fd5b505050506040513d601f19601f82011682018060405250810190610b3e91906112a3565b610b825760405162461bcd60e51b8152602060048201526015602482015274151bdad95b881d1c985b9cd9995c8819985a5b1959605a1b60448201526064016106be565b8060026001016000828254610b979190611290565b909155505060ff821660009081526005602052604081208054839290610bbe908490611290565b9091555050336000818152600960209081526040808320815160608101835260ff888116808352828601898152838601888152855460018082018855968a52988890209451600390990290940180549890931660ff199889161783555193820193909355905160029091018054911515919095161790935580519283529082018490527f9f6b4cced64244a64465098f682029975b1614400b96bc6bd12c668083719166910160405180910390a2610c766001600055565b5050565b610c82610e99565b612710811115610ccc5760405162461bcd60e51b815260206004820152601560248201527404f646473206d757374206265203c3d20313030303605c1b60448201526064016106be565b63672960004210610d105760405162461bcd60e51b815260206004820152600e60248201526d115b1958dd1a5bdb88195b99195960921b60448201526064016106be565b60045460ff1615610d335760405162461bcd60e51b81526004016106be906112c5565b6006819055610d448161271061123e565b600755426008557f401f5799446884f85b1967999c05db7393e8ce1fd302dc57ad43d6c1fafe9e2981610d798161271061123e565b604080519283526020830191909152015b60405180910390a150565b610d9d610e99565b6367296000421015610de65760405162461bcd60e51b8152602060048201526012602482015271115b1958dd1a5bdb881b9bdd08195b99195960721b60448201526064016106be565b60045460ff1615610e095760405162461bcd60e51b81526004016106be906112c5565b6004805460ff83166101000261ffff199091161760011790556040517f94e5f71d5001613eb5e4ad876acb1da127582270c692c34fbcf810be21728b1d90610d8a90839060ff91909116815260200190565b610e63610e99565b6001600160a01b038116610e8d57604051631e4fbdf760e01b8152600060048201526024016106be565b610e9681610ec6565b50565b6001546001600160a01b031633146106295760405163118cdaa760e01b81523360048201526024016106be565b600180546001600160a01b038381166001600160a01b0319831681179093556040519116919082907f8be0079c531659141344cd1fd0a4f28419497f9722a3daafe3b4186f6b6457e090600090a35050565b600260005403610f3b57604051633ee5aeb560e01b815260040160405180910390fd5b6002600055565b6000815180845260005b81811015610f6857602081850181015186830182015201610f4c565b506000602082860101526020601f19601f83011685010191505092915050565b61012081526000610f9d61012083018c610f42565b602083019a909a525060408101979097529415156060870152608086019390935260a085019190915260c084015260e083015261010090910152919050565b80356001600160a01b0381168114610ff357600080fd5b919050565b60006020828403121561100a57600080fd5b61101382610fdc565b9392505050565b600081518084526020840193506020830160005b8281101561104e578151151586526020958601959091019060010161102e565b5093949350505050565b6060808252845190820181905260009060208601906080840190835b8181101561109557835160ff16835260209384019390920191600101611074565b50508381036020808601919091528651808352918101925086019060005b818110156110d15782518452602093840193909201916001016110b3565b50505082810360408401526110e6818561101a565b9695505050505050565b60e08152600061110360e083018a610f42565b602083019890985250941515604086015260ff939093166060850152608084019190915260a083015260c090910152919050565b6000806040838503121561114a57600080fd5b61115383610fdc565b946020939093013593505050565b803560ff81168114610ff357600080fd5b6000806040838503121561118557600080fd5b61115383611161565b6000602082840312156111a057600080fd5b5035919050565b6000602082840312156111b957600080fd5b61101382611161565b600181811c908216806111d657607f821691505b6020821081036111f657634e487b7160e01b600052602260045260246000fd5b50919050565b634e487b7160e01b600052604160045260246000fd5b634e487b7160e01b600052603260045260246000fd5b634e487b7160e01b600052601160045260246000fd5b8181038181111561125157611251611228565b92915050565b808202811582820484141761125157611251611228565b60008261128b57634e487b7160e01b600052601260045260246000fd5b500490565b8082018082111561125157611251611228565b6000602082840312156112b557600080fd5b8151801515811461101357600080fd5b60208082526017908201527f4d61726b657420616c7265616479207265736f6c76656400000000000000000060408201526060019056fea264697066735822122013bc6634d86b58a7bad44d9037ad658f9454f44ff89ea6a917c7b4ef6be744d964736f6c634300081a0033","linkReferences":{}},"methodIdentifiers":{"ELECTION_END_TIME()":"03b7338e","betToken()":"78691f16","claimWinnings()":"b401faf1","electionMarket()":"5536f262","getMarketInfo()":"23341a05","getUserBets(address)":"2d56657d","owner()":"8da5cb5b","placeBet(uint8,uint256)":"dcb3b30e","renounceOwnership()":"715018a6","resolveMarket(uint8)":"f21ffa6b","transferOwnership(address)":"f2fde38b","updateOdds(uint256)":"eb50f6bc","userBets(address,uint256)":"8068aa68"},"id":24}