{"abi":[{"type":"constructor","inputs":[{"name":"_betToken","type":"address","internalType":"address"},{"name":"initialOwner","type":"address","internalType":"address"}],"stateMutability":"nonpayable"},{"type":"function","name":"MAX_HISTORICAL_DATA_POINTS","inputs":[],"outputs":[{"name":"","type":"uint256","internalType":"uint256"}],"stateMutability":"view"},{"type":"function","name":"MIN_UPDATE_INTERVAL","inputs":[],"outputs":[{"name":"","type":"uint256","internalType":"uint256"}],"stateMutability":"view"},{"type":"function","name":"betToken","inputs":[],"outputs":[{"name":"","type":"address","internalType":"contract IERC20"}],"stateMutability":"view"},{"type":"function","name":"createMarket","inputs":[{"name":"_description","type":"string","internalType":"string"},{"name":"_resolutionTime","type":"uint256","internalType":"uint256"},{"name":"_minimumUpdateInterval","type":"uint256","internalType":"uint256"}],"outputs":[],"stateMutability":"nonpayable"},{"type":"function","name":"getHistoricalOdds","inputs":[{"name":"_marketId","type":"uint256","internalType":"uint256"},{"name":"_index","type":"uint256","internalType":"uint256"}],"outputs":[{"name":"odds","type":"uint256","internalType":"uint256"},{"name":"timestamp","type":"uint256","internalType":"uint256"}],"stateMutability":"view"},{"type":"function","name":"getHistoricalOddsCount","inputs":[{"name":"_marketId","type":"uint256","internalType":"uint256"}],"outputs":[{"name":"","type":"uint256","internalType":"uint256"}],"stateMutability":"view"},{"type":"function","name":"getLatestOdds","inputs":[{"name":"_marketId","type":"uint256","internalType":"uint256"}],"outputs":[{"name":"odds","type":"uint256","internalType":"uint256"},{"name":"timestamp","type":"uint256","internalType":"uint256"}],"stateMutability":"view"},{"type":"function","name":"getMarketDetails","inputs":[{"name":"_marketId","type":"uint256","internalType":"uint256"}],"outputs":[{"name":"description","type":"string","internalType":"string"},{"name":"totalPoolSize","type":"uint256","internalType":"uint256"},{"name":"resolutionTime","type":"uint256","internalType":"uint256"},{"name":"resolved","type":"bool","internalType":"bool"},{"name":"cancelled","type":"bool","internalType":"bool"},{"name":"outcomePools","type":"uint256[]","internalType":"uint256[]"},{"name":"currentOdds","type":"uint256","internalType":"uint256"},{"name":"lastUpdateBlock","type":"uint256","internalType":"uint256"}],"stateMutability":"view"},{"type":"function","name":"marketCount","inputs":[],"outputs":[{"name":"","type":"uint256","internalType":"uint256"}],"stateMutability":"view"},{"type":"function","name":"markets","inputs":[{"name":"","type":"uint256","internalType":"uint256"}],"outputs":[{"name":"description","type":"string","internalType":"string"},{"name":"totalPoolSize","type":"uint256","internalType":"uint256"},{"name":"resolutionTime","type":"uint256","internalType":"uint256"},{"name":"resolved","type":"bool","internalType":"bool"},{"name":"winningOutcome","type":"uint8","internalType":"uint8"},{"name":"cancelled","type":"bool","internalType":"bool"},{"name":"currentOdds","type":"tuple","internalType":"struct PredictionMarket.OracleData","components":[{"name":"odds","type":"uint256","internalType":"uint256"},{"name":"timestamp","type":"uint256","internalType":"uint256"}]},{"name":"lastUpdateBlock","type":"uint256","internalType":"uint256"},{"name":"minimumUpdateInterval","type":"uint256","internalType":"uint256"}],"stateMutability":"view"},{"type":"function","name":"oracle","inputs":[],"outputs":[{"name":"","type":"address","internalType":"address"}],"stateMutability":"view"},{"type":"function","name":"owner","inputs":[],"outputs":[{"name":"","type":"address","internalType":"address"}],"stateMutability":"view"},{"type":"function","name":"paused","inputs":[],"outputs":[{"name":"","type":"bool","internalType":"bool"}],"stateMutability":"view"},{"type":"function","name":"placeBet","inputs":[{"name":"_marketId","type":"uint256","internalType":"uint256"},{"name":"_outcome","type":"uint8","internalType":"uint8"},{"name":"_amount","type":"uint256","internalType":"uint256"}],"outputs":[],"stateMutability":"nonpayable"},{"type":"function","name":"renounceOwnership","inputs":[],"outputs":[],"stateMutability":"nonpayable"},{"type":"function","name":"setOracle","inputs":[{"name":"_oracle","type":"address","internalType":"address"}],"outputs":[],"stateMutability":"nonpayable"},{"type":"function","name":"transferOwnership","inputs":[{"name":"newOwner","type":"address","internalType":"address"}],"outputs":[],"stateMutability":"nonpayable"},{"type":"function","name":"updateOracleData","inputs":[{"name":"_marketId","type":"uint256","internalType":"uint256"},{"name":"_odds","type":"uint256","internalType":"uint256"},{"name":"_timestamp","type":"uint256","internalType":"uint256"}],"outputs":[],"stateMutability":"nonpayable"},{"type":"function","name":"userBets","inputs":[{"name":"","type":"uint256","internalType":"uint256"},{"name":"","type":"address","internalType":"address"},{"name":"","type":"uint256","internalType":"uint256"}],"outputs":[{"name":"outcome","type":"uint8","internalType":"uint8"},{"name":"amount","type":"uint256","internalType":"uint256"},{"name":"oddsAtBet","type":"uint256","internalType":"uint256"},{"name":"claimed","type":"bool","internalType":"bool"}],"stateMutability":"view"},{"type":"event","name":"BetClaimed","inputs":[{"name":"marketId","type":"uint256","indexed":true,"internalType":"uint256"},{"name":"bettor","type":"address","indexed":true,"internalType":"address"},{"name":"amount","type":"uint256","indexed":false,"internalType":"uint256"}],"anonymous":false},{"type":"event","name":"BetPlaced","inputs":[{"name":"marketId","type":"uint256","indexed":true,"internalType":"uint256"},{"name":"bettor","type":"address","indexed":true,"internalType":"address"},{"name":"outcome","type":"uint8","indexed":false,"internalType":"uint8"},{"name":"amount","type":"uint256","indexed":false,"internalType":"uint256"},{"name":"oddsAtBet","type":"uint256","indexed":false,"internalType":"uint256"}],"anonymous":false},{"type":"event","name":"MarketCancelled","inputs":[{"name":"marketId","type":"uint256","indexed":true,"internalType":"uint256"}],"anonymous":false},{"type":"event","name":"MarketCreated","inputs":[{"name":"marketId","type":"uint256","indexed":true,"internalType":"uint256"},{"name":"description","type":"string","indexed":false,"internalType":"string"},{"name":"resolutionTime","type":"uint256","indexed":false,"internalType":"uint256"}],"anonymous":false},{"type":"event","name":"MarketResolved","inputs":[{"name":"marketId","type":"uint256","indexed":true,"internalType":"uint256"},{"name":"winningOutcome","type":"uint8","indexed":false,"internalType":"uint8"}],"anonymous":false},{"type":"event","name":"OracleAddressUpdated","inputs":[{"name":"newOracle","type":"address","indexed":false,"internalType":"address"}],"anonymous":false},{"type":"event","name":"OracleUpdated","inputs":[{"name":"marketId","type":"uint256","indexed":true,"internalType":"uint256"},{"name":"odds","type":"uint256","indexed":false,"internalType":"uint256"},{"name":"timestamp","type":"uint256","indexed":false,"internalType":"uint256"}],"anonymous":false},{"type":"event","name":"OwnershipTransferred","inputs":[{"name":"previousOwner","type":"address","indexed":true,"internalType":"address"},{"name":"newOwner","type":"address","indexed":true,"internalType":"address"}],"anonymous":false},{"type":"event","name":"Paused","inputs":[{"name":"account","type":"address","indexed":false,"internalType":"address"}],"anonymous":false},{"type":"event","name":"Unpaused","inputs":[{"name":"account","type":"address","indexed":false,"internalType":"address"}],"anonymous":false},{"type":"error","name":"EnforcedPause","inputs":[]},{"type":"error","name":"ExpectedPause","inputs":[]},{"type":"error","name":"OwnableInvalidOwner","inputs":[{"name":"owner","type":"address","internalType":"address"}]},{"type":"error","name":"OwnableUnauthorizedAccount","inputs":[{"name":"account","type":"address","internalType":"address"}]},{"type":"error","name":"ReentrancyGuardReentrantCall","inputs":[]}],"bytecode":{"object":"0x60a060405234801561001057600080fd5b5060405161166738038061166783398101604081905261002f91610151565b6001600055806001600160a01b03811661006457604051631e4fbdf760e01b8152600060048201526024015b60405180910390fd5b61006d816100e3565b506001805460ff60a01b191690556001600160a01b0382166100d15760405162461bcd60e51b815260206004820152601560248201527f496e76616c696420746f6b656e20616464726573730000000000000000000000604482015260640161005b565b506001600160a01b0316608052610184565b600180546001600160a01b038381166001600160a01b0319831681179093556040519116919082907f8be0079c531659141344cd1fd0a4f28419497f9722a3daafe3b4186f6b6457e090600090a35050565b80516001600160a01b038116811461014c57600080fd5b919050565b6000806040838503121561016457600080fd5b61016d83610135565b915061017b60208401610135565b90509250929050565b6080516114c16101a6600039600081816102010152610a8001526114c16000f3fe608060405234801561001057600080fd5b50600436106101215760003560e01c8063b06c1ba3116100ad578063da866c4811610071578063da866c48146102ef578063e7b7101214610302578063ec97908214610315578063ecfa0ddf1461031e578063f2fde38b1461032757600080fd5b8063b06c1ba314610272578063b1283e7714610299578063bd3be27c146102c1578063cfa51b16146102c9578063d92683a9146102dc57600080fd5b8063715018a6116100f4578063715018a6146101f257806378691f16146101fc5780637adbf9731461023b5780637dc0d1d01461024e5780638da5cb5b1461026157600080fd5b80633809ddda146101265780635c975abb1461016b5780636000cdee1461018857806361c4cc15146101b9575b600080fd5b610151610134366004610f88565b600090815260026020526040902060078101546008909101549091565b604080519283526020830191909152015b60405180910390f35b600154600160a01b900460ff166040519015158152602001610162565b6101ab610196366004610f88565b60009081526002602052604090206006015490565b604051908152602001610162565b6101cc6101c7366004610fbd565b61033a565b6040805160ff909516855260208501939093529183015215156060820152608001610162565b6101fa610395565b005b6102237f000000000000000000000000000000000000000000000000000000000000000081565b6040516001600160a01b039091168152602001610162565b6101fa610249366004610ff3565b6103a9565b600554610223906001600160a01b031681565b6001546001600160a01b0316610223565b610285610280366004610f88565b610459565b60405161016298979695949392919061105b565b6102ac6102a7366004610f88565b6105d5565b604051610162999897969594939291906110e1565b6101ab603c81565b6101fa6102d7366004611160565b6106c5565b6101516102ea366004611227565b610858565b6101fa6102fd366004611249565b610904565b6101fa610310366004611276565b610c5c565b6101ab60035481565b6101ab6103e881565b6101fa610335366004610ff3565b610e76565b6004602052826000526040600020602052816000526040600020818154811061036257600080fd5b6000918252602090912060049091020180546001820154600283015460039093015460ff92831696509094509192501684565b61039d610eb4565b6103a76000610ee1565b565b6103b1610eb4565b6001600160a01b0381166104055760405162461bcd60e51b8152602060048201526016602482015275496e76616c6964206f7261636c65206164647265737360501b60448201526064015b60405180910390fd5b600580546001600160a01b0319166001600160a01b0383169081179091556040519081527f107a9fafffb7ac890f780879e423760c9ffea8dcee8045681f40f542aede2cb89060200160405180910390a150565b600081815260026020818152604080842081518481526060808201845295948594859485948994869485949293919290919083019080368337505060008080526004840160205260408120548351939750928792506104ba576104ba6112a2565b602002602001018181525050806004016000600160ff16815260200190815260200160002054846001815181106104f3576104f36112a2565b602090810291909101015260018101546002820154600383015460058401546007850154600986015486548796959460ff9081169416928b9290918890610539906112b8565b80601f0160208091040260200160405190810160405280929190818152602001828054610565906112b8565b80156105b25780601f10610587576101008083540402835291602001916105b2565b820191906000526020600020905b81548152906001019060200180831161059557829003601f168201915b505050505097509850985098509850985098509850985050919395975091939597565b6002602052600090815260409020805481906105f0906112b8565b80601f016020809104026020016040519081016040528092919081815260200182805461061c906112b8565b80156106695780601f1061063e57610100808354040283529160200191610669565b820191906000526020600020905b81548152906001019060200180831161064c57829003601f168201915b50505060018401546002850154600386015460058701546040805180820190915260078901548152600889015460208201526009890154600a909901549798949793965060ff8084169650610100909304831694919092169289565b6106cd610eb4565b6106da4262015180611308565b82116107285760405162461bcd60e51b815260206004820152601860248201527f5265736f6c7574696f6e2074696d6520746f6f20736f6f6e000000000000000060448201526064016103fc565b610736426301e13380611308565b82106107845760405162461bcd60e51b815260206004820152601760248201527f5265736f6c7574696f6e2074696d6520746f6f2066617200000000000000000060448201526064016103fc565b603c8110156107d55760405162461bcd60e51b815260206004820152601960248201527f55706461746520696e74657276616c20746f6f2073686f72740000000000000060448201526064016103fc565b60038054600091826107e683611321565b909155506000818152600260205260409020909150806108068682611388565b5060028101849055600a810183905560405182907f2d1e9ad45dbe8e898e0374deebf2a661b2ae7c1855d2a29507d584c35d287c75906108499088908890611447565b60405180910390a25050505050565b6000828152600260205260408120600681015482919084106108b25760405162461bcd60e51b8152602060048201526013602482015272496e646578206f7574206f6620626f756e647360681b60448201526064016103fc565b60008160060185815481106108c9576108c96112a2565b600091825260209182902060408051808201909152600290920201805480835260019091015491909201819052909450925050509250929050565b61090c610f33565b610914610f5d565b600081116109645760405162461bcd60e51b815260206004820152601b60248201527f42657420616d6f756e74206d75737420626520706f736974697665000000000060448201526064016103fc565b60018260ff1611156109aa5760405162461bcd60e51b815260206004820152600f60248201526e496e76616c6964206f7574636f6d6560881b60448201526064016103fc565b6000838152600260205260409020600381015460ff161580156109d25750600581015460ff16155b610a185760405162461bcd60e51b81526020600482015260176024820152764d61726b6574206e6f206c6f6e6765722061637469766560481b60448201526064016103fc565b80600201544210610a5e5760405162461bcd60e51b815260206004820152601060248201526f13585c9ad95d081a185cc8195b99195960821b60448201526064016103fc565b6040516323b872dd60e01b8152336004820152306024820152604481018390527f00000000000000000000000000000000000000000000000000000000000000006001600160a01b0316906323b872dd906064016020604051808303816000875af1158015610ad1573d6000803e3d6000fd5b505050506040513d601f19601f82011682018060405250810190610af59190611469565b610b395760405162461bcd60e51b8152602060048201526015602482015274151bdad95b881d1c985b9cd9995c8819985a5b1959605a1b60448201526064016103fc565b81816001016000828254610b4d9190611308565b909155505060ff8316600090815260048201602052604081208054849290610b76908490611308565b9091555050600084815260046020818152604080842033808652908352818520825160808101845260ff8a81168083528287018b815260078b01805485890190815260608087018d8152885460018082018b55998f529d8c902097519d909c0290960180549c90951660ff199c8d161785559151958401959095555160028301559651600390910180549115159190981617909655548251948552928401879052908301919091529186917fbfcd8f4e47cc529f86cdc7eab8fb80e015a298e021fcaee72df1f76dd57cf487910160405180910390a350610c576001600055565b505050565b6005546001600160a01b03163314610cb65760405162461bcd60e51b815260206004820152601860248201527f43616c6c6572206973206e6f7420746865206f7261636c65000000000000000060448201526064016103fc565b610cbe610f5d565b6000838152600260205260409020600381015460ff16158015610ce65750600581015460ff16155b610d2c5760405162461bcd60e51b81526020600482015260176024820152764d61726b6574206e6f206c6f6e6765722061637469766560481b60448201526064016103fc565b80600a01548160090154610d409190611308565b421015610d845760405162461bcd60e51b8152602060048201526012602482015271546f6f20736f6f6e20746f2075706461746560701b60448201526064016103fc565b42821115610dd45760405162461bcd60e51b815260206004820152601c60248201527f4675747572652074696d657374616d70206e6f7420616c6c6f7765640000000060448201526064016103fc565b60068101546103e81115610e10576006810180546001818101835560009283526020909220600784015460029092020190815560088301549101555b60408051808201825284815260209081018490526007830185905560088301849055426009840155815185815290810184905285917f8d6131ead05d17bb37913bdff362964b1be7fc0762dfbf84399d91316c35f2ac910160405180910390a250505050565b610e7e610eb4565b6001600160a01b038116610ea857604051631e4fbdf760e01b8152600060048201526024016103fc565b610eb181610ee1565b50565b6001546001600160a01b031633146103a75760405163118cdaa760e01b81523360048201526024016103fc565b600180546001600160a01b038381166001600160a01b0319831681179093556040519116919082907f8be0079c531659141344cd1fd0a4f28419497f9722a3daafe3b4186f6b6457e090600090a35050565b600260005403610f5657604051633ee5aeb560e01b815260040160405180910390fd5b6002600055565b600154600160a01b900460ff16156103a75760405163d93c066560e01b815260040160405180910390fd5b600060208284031215610f9a57600080fd5b5035919050565b80356001600160a01b0381168114610fb857600080fd5b919050565b600080600060608486031215610fd257600080fd5b83359250610fe260208501610fa1565b929592945050506040919091013590565b60006020828403121561100557600080fd5b61100e82610fa1565b9392505050565b6000815180845260005b8181101561103b5760208185018101518683018201520161101f565b506000602082860101526020601f19601f83011685010191505092915050565b6101008152600061107061010083018b611015565b8960208401528860408401528715156060840152861515608084015282810360a084015280865180835260208301915060208801925060005b818110156110c75783518352602093840193909201916001016110a9565b505060c0840195909552505060e001529695505050505050565b610140815260006110f661014083018c611015565b9050896020830152886040830152871515606083015260ff8716608083015285151560a0830152845160c0830152602085015160e083015283610100830152826101208301529a9950505050505050505050565b634e487b7160e01b600052604160045260246000fd5b60008060006060848603121561117557600080fd5b833567ffffffffffffffff81111561118c57600080fd5b8401601f8101861361119d57600080fd5b803567ffffffffffffffff8111156111b7576111b761114a565b604051601f8201601f19908116603f0116810167ffffffffffffffff811182821017156111e6576111e661114a565b6040528181528282016020018810156111fe57600080fd5b816020840160208301376000602092820183015297908601359650604090950135949350505050565b6000806040838503121561123a57600080fd5b50508035926020909101359150565b60008060006060848603121561125e57600080fd5b83359250602084013560ff81168114610fe257600080fd5b60008060006060848603121561128b57600080fd5b505081359360208301359350604090920135919050565b634e487b7160e01b600052603260045260246000fd5b600181811c908216806112cc57607f821691505b6020821081036112ec57634e487b7160e01b600052602260045260246000fd5b50919050565b634e487b7160e01b600052601160045260246000fd5b8082018082111561131b5761131b6112f2565b92915050565b600060018201611333576113336112f2565b5060010190565b601f821115610c5757806000526020600020601f840160051c810160208510156113615750805b601f840160051c820191505b81811015611381576000815560010161136d565b5050505050565b815167ffffffffffffffff8111156113a2576113a261114a565b6113b6816113b084546112b8565b8461133a565b6020601f8211600181146113ea57600083156113d25750848201515b600019600385901b1c1916600184901b178455611381565b600084815260208120601f198516915b8281101561141a57878501518255602094850194600190920191016113fa565b50848210156114385786840151600019600387901b60f8161c191681555b50505050600190811b01905550565b60408152600061145a6040830185611015565b90508260208301529392505050565b60006020828403121561147b57600080fd5b8151801515811461100e57600080fdfea26469706673582212207d696cb51eeda8cebb249cbef8498d25ef8a12c257ac1651270e1b999b0bacd464736f6c634300081a0033","linkReferences":{}},"methodIdentifiers":{"MAX_HISTORICAL_DATA_POINTS()":"ecfa0ddf","MIN_UPDATE_INTERVAL()":"bd3be27c","betToken()":"78691f16","createMarket(string,uint256,uint256)":"cfa51b16","getHistoricalOdds(uint256,uint256)":"d92683a9","getHistoricalOddsCount(uint256)":"6000cdee","getLatestOdds(uint256)":"3809ddda","getMarketDetails(uint256)":"b06c1ba3","marketCount()":"ec979082","markets(uint256)":"b1283e77","oracle()":"7dc0d1d0","owner()":"8da5cb5b","paused()":"5c975abb","placeBet(uint256,uint8,uint256)":"da866c48","renounceOwnership()":"715018a6","setOracle(address)":"7adbf973","transferOwnership(address)":"f2fde38b","updateOracleData(uint256,uint256,uint256)":"e7b71012","userBets(uint256,address,uint256)":"61c4cc15"},"id":29}